:020000040800F2
:1000000080040020A1010008FB0500089D050008F0
:10001000F905000807020008390700080000000081
:100020000000000000000000000000001D060008A5
:100030000D05000800000000FD050008D9060008B5
:10004000BB010008BB010008BB010008BB010008A0
:10005000BB010008BB010008BB010008BB01000890
:10006000BB010008BB010008BB010008BB01000880
:10007000BB010008BB010008BB010008BB01000870
:10008000BB010008BB010008BB010008BB01000860
:10009000BB010008BB010008BB010008BB01000850
:1000A000BB010008BB010008BB010008BB01000840
:1000B000BB010008BB010008BB010008BB01000830
:1000C000BB010008BB010008BB010008BB01000820
:1000D000BB010008BB010008BB010008BB01000810
:1000E000BB010008BB010008BB010008BB01000800
:1000F000BB010008BB010008BB010008BB010008F0
:10010000BB010008BB010008BB010008BB010008DF
:10011000BB010008BB010008BB010008BB010008CF
:10012000BB010008BB010008BB010008BB010008BF
:10013000BB010008BB010008BB010008BB010008AF
:10014000BB010008BB010008BB010008BB0100089F
:10015000BB010008BB010008BB010008BB0100088F
:10016000BB010008BB010008BB010008BB0100087F
:10017000BB010008BB010008BB010008BB0100086F
:10018000BB010008BB010008DFF810D000F01AF82E
:100190000048004759070008AFF3008080040020A2
:1001A0000648804706480047FEE7FEE7FEE7FEE711
:1001B000FEE7FEE7FEE7FEE7FEE7FEE7DD060008F6
:1001C00089010008064C074D06E0E06840F0010395
:1001D00094E8070098471034AC42F6D3FFF7D8FFF5
:1001E0001C0800082C08000810B507E003680C681C
:1001F000A34201D0002010BD001D091D521E92B265
:10020000F4D2012010BDFEE7074A904201D2074810
:1002100001E005481038064A8B0001EA020101D5C9
:10022000C160704781607047106402400060024006
:100230007D0F7D0F002904D0016841F001010160AC
:100240007047016821F0010101607047F0B591B07D
:1002500042F2107601960121880500F0D1F9284C70
:10026000204600F057F8204600F0EAF80028FAD1BE
:100270000290244904912449039180250595202169
:1002800006914901089149100791C90009910A9105
:100290000B9049010C9104210D9103210E910F90B7
:1002A000109002A9204600F0EDF818492046FFF70B
:1002B000ABFF01212046FFF7BDFF0196204600F06D
:1002C000BFF8012803D00198411E0191F6D2019890
:1002D000002812D10E4F4022B91E8C156FF07F46B8
:1002E0003A800D800C80304600F011F90A800D80B4
:1002F0000C80304600F00BF9F2E711B0F0BD0000C1
:1003000010640240000000209C070008200000103C
:100310001A1402402DE9F043016821F00101016047
:100320000021016041608160C16001612121416162
:100330003E493E4A10394FF03D08904203D1C1F882
:100340000880BDE8F083394A4FF474651832904252
:1003500001D18D60F5E7354A4FF474163032904282
:1003600001D18E60EDE7314A4FF074674832904218
:1003700001D18F60E5E72D4B2D4A6033984201D1C2
:10038000CA60DEE7294C2B4B7834A04201D1CB6008
:10039000D7E7DFF898C0284C0CF1900C604501D1EC
:1003A000CC60CEE7DFF884904FF03D5C09F1A809FE
:1003B000484502D1C1F80CC0C3E72049DFF87C9062
:1003C0000839484502D1C1F80080BAE7DFF86C80EF
:1003D00008F11808404501D10D60B2E7174D3035DE
:1003E000A84201D10E60ACE7144D4835A84201D1B6
:1003F0000F60A6E7114D11496035091FA84201D1D0
:100400000A609EE70D4A7832904201D10B6098E76E
:100410000A4A9032904201D10C6092E7074AA83212
:1004200090428ED1C1F800C08BE7000010600240FE
:100430003D000020400F002000003D2010640240DD
:10044000014600200968C90700D00120704700005C
:1004500002460020084B9A4201D2084A01E0064AAF
:10046000103A8B0001D5526800E01268044B1A4024
:100470000A4200D001207047106402400060024030
:100480007D0F7D0F30B50368124A1340CC680A68AF
:100490002243D1E905452C432243CC6922430C6A0F
:1004A00022434C6A22438C6A22434C6B22438C6B5E
:1004B00022431A430260426922F00703D1E90B2468
:1004C00022431A4342610A6942604A68826089682D
:1004D000C16030BD3F801CF070B5FFF7B7FE074C20
:1004E000074D21462846FFF7B3FF0028F9D0BDE8A5
:1004F0007040202203490448FFF776BE2000001018
:1005000010640240000000209C070008704701B5FD
:1005100002E00098401E009000980028F9D108BD24
:100520002DE9F041002201274FF0030C07FA02F5F4
:100530000B682B40AB422CD1066853000CFA03F435
:10054000A64306600E79D0F800809E4046EA080671
:1005500006600E79012E01D0022E12D18668A643C4
:1005600086604E79D0F808809E4046EA080686608C
:100570004668AE43466045688E799640B6B23543CC
:100580004560C568A543C560CC799C40C3681C43E1
:10059000C460521C102AC9D3BDE8F081FEE70000F8
:1005A0002DE9FC410121202000F02AF8402400948C
:1005B00001208DF8040000218DF806108DF8070049
:1005C0008DF805100B4F69463846FFF7A9FF8026C6
:1005D000009669463846FFF7A3FFA50000956946D7
:1005E0003846FFF79DFF03481830048006800580D9
:1005F000BDE8FC8100140240FEE770477047000030
:10060000054A002903D01168014311607047116841
:10061000814311607047000030380240704700008D
:100620000CB50022019200922749086840F48030FE
:1006300008604FF4A043086800F40030009001986F
:10064000401C0190009810B901989842F3D10868B5
:10065000800302D50120009000E00092009801285C
:1006600031D119484030026842F080520260174888
:10067000026842F440420260134808300268026097
:10068000026842F400420260026842F4A052026032
:10069000021F0F4B13600A6842F080720A600A68FA
:1006A0009201FCD50B4A40F205711160016821F0FE
:1006B00003010160016841F0020101600168C1F3BA
:1006C00081010229FAD10CBD0038024000700040BF
:1006D00019544007003C02407047000010B5124812
:1006E000016841F4700101601048016841F00101A6
:1006F00001600E4A00210832116002680C4B1A405A
:100700000260031D0B4A1A60026822F48022026014
:1007100006480C300160FFF783FF03494FF000608B
:100720008039086010BD000088ED00E0003802400C
:10073000FFFFF6FE10300024FEE702E008C8121F9B
:1007400008C1002AFAD170477047002001E001C1BA
:10075000121F002AFBD17047FFF722FF0E4D4027E2
:100760002F80AC1E4FF08008A4F80080A6152E80C4
:100770006FF07F40FFF7CBFEFFF768FDFFF7ACFEA1
:1007800020B12780A4F800802E8003E02F80A4F8F9
:1007900000802680FEE700001A14024004030201D4
:1007A000080706050C0B0A09100F0E0D1413121181
:1007B000181716151C1B1A19201F1E1D2423222171
:1007C000282726252C2B2A29302F2E2D3433323161
:1007D000383736353C3B3A39403F3E3D4443424151
:1007E000484746454C4B4A49504F4E4D5453525141
:1007F000585756555C5B5A59605F5E5D6463626131
:10080000686766656C6B6A69706F6E6D7473727120
:10081000787776757C7B7A79807F7E7D2C080008DE
:0C08200000000020800400004A070008CF
:040000050800018965
:00000001FF
